:100000000C9434000C9451000C9451000C94510049
:100010000C9451000C9451000C9451000C9451001C
:100020000C9451000C943F080C9451000C94510016
:100030000C9451000C9497030C9451000C945100B3
:100040000C9451000C9451000C9451000C945100EC
:100050000C9451000C9451000C9451000C945100DC
:100060000C9451000C94510011241FBECFEFD8E026
:10007000DEBFCDBF11E0A0E0B1E0EEE2F7E102C0EB
:1000800005900D92A834B107D9F711E0A8E4B1E0CA
:1000900001C01D92AF36B107E1F70E94A8000C9491
:1000A000950B0C940000883060F421E030E002C031
:1000B000220F331F8A95E2F7AAE2B0E0EBE2F0E00C
:1000C00025C08E3070F490E0089721E030E002C047
:1000D000220F331F8A95E2F7A4E2B0E0E5E2F0E0F8
:1000E00015C0853170F490E00E9721E030E002C039
:1000F000220F331F8A95E2F7A7E2B0E0E8E2F0E0D2
:1001000005C020E0A0E0B0E0E0E0F0E06F3F19F4CF
:100110008081822709C0662319F08081822B04C068
:100120009081822F8095892380838C91822B8C9360
:10013000089580911D018F5F80931D010895282FE0
:10014000392FF90101C080B981918823E1F7089521
:1001500080E091E00E94B40587E091E00E949F005A
:1001600083E191E00E940B0481E060E00E94530073
:1001700087E061E00E94530084E690E00E94B108AD
:1001800081E061E00E94530087E060E00E9453003C
:1001900084E690E00E94B108E7CF90914D01E09194
:1001A0004901F0914A01992311F0849101C08081A5
:1001B000282F21542A3110F4805E0895803271F482
:1001C0002091490130914A01A9014F5F5F4F50933F
:1001D0004A01409349012115310509F70895CF934C
:1001E000DF930E94CD00C0E0D0E01BC09E01220F33
:1001F000331F93E0CC0FDD1F9A95E1F7C20FD31F99
:10020000992787FD9095C80FD91FE09780914901E4
:1002100090914A01019690934A01809349010E946E
:10022000CD00982F90539A3008F3CE01DF91CF91F3
:100230000895089510926F0083E28093800081E119
:10024000809381001092820080E197E29093890070
:100250008093880010928B0010928A00229A7894E2
:10026000089580914801882329F481E08093480112
:100270000E941A010895A0E0B0E0E1E4F1E00C94DE
:10028000C3098C015B01E42E0E94310110921E0112
:1002900017FF04C01F77FAE0FF2E02C0FF24F3947B
:1002A000C0908100DD2428EFC222DD2488EC6F2D70
:1002B000689FC001112480179107D8F4E80177E204
:1002C0000131170710F0C0E1D7E2BE0176956795BE
:1002D00080E090E06058794687469F4F9E0140E05D
:1002E00050E00E947E09890181E090E0C82AD92A65
:1002F00028C098E2F99E902D112480E0C92FD82FB4
:10030000C017D10708F4E801BE01769567959E01F4
:1003100040E050E09F2D9A3039F480E090E0605E3C
:10032000734481449F4F06C080E090E060537D4E4F
:100330008C4E9F4F0E947E09890162E070E0C62AC0
:10034000D72A7F2D7A3039F4CE0105966AE070E025
:100350000E946A09EB0183E0C83ED80779F0BE012C
:1003600080E090E0950140E050E00E943F0928EED7
:1003700033E040E050E00E94A00901C095011092D6
:100380006F00C09281001093890000938800409113
:100390008800509189006E2D603108F06FE080E197
:1003A00090E0861B9109BA0102C0769567958A95FF
:1003B000E2F770938B0060938A0030935001209392
:1003C0004F0186B38FEF86BB81E080936F00CDB77E
:1003D000DEB7EAE00C94DF090E943B0108959B011F
:1003E0008F3F11F0442329F488EE93E0B90140E0F7
:1003F00049C0813130F0582F5051503618F05FE528
:1004000001C050E0852F6CE00E945E09A82FB0E08B
:10041000E4EFFFEFAE9FB001AF9F700DBE9F700D78
:100420001124650F711D6C30710540F4FB01EE0F56
:10043000FF1FE85DFE4F6081718102C060E070E0E7
:10044000873081F0082E02C0660F771F0A94E2F70A
:10045000823028F0CB0105966AE070E00CC0605055
:1004600070480BC0CB01A6E0880F991FAA95E1F751
:10047000029665E070E00E946A09403108F04FE0A2
:10048000CB01B9010E943B010895A0E0B0E0EBE48C
:10049000F2E00C94C009B0901F0180914B018823B9
:1004A00061F060914C01662341F08FEF70E040E015
:1004B0000E94EF0110924C0135C1C0ECDDE5AA2489
:1004C000A39414E0712E00ED17E0B4E0EB2EF12CB4
:1004D000A4EFCA2EA1E0DA2EFFE08F2E912C0E940D
:1004E000CD002091490130914A012F5F3F4F309359
:1004F0004A01209349018636F1F18736CCF48236E1
:1005000009F4AFC083367CF48E3349F18F333CF469
:10051000813209F487C08C3309F09BC022C0813638
:1005200009F097C09BC0843601F185360CF51BC0DD
:100530008F3609F447C0803744F48C3611F18D367C
:1005400061F1873609F085C019C0843709F444C0C9
:10055000863709F460C0823709F07BC039C0B39494
:10056000BECFBA94BCCFEE2435C0EE2482E07BC06F
:10057000EE2484E078C0EE2485E075C0EE2487E0A8
:1005800072C00E94EF00BC01909321018093200172
:10059000809122019091230137C00E94CD008C36BA
:1005A00019F410924B0104C0A0924B0110924C011F
:1005B0008091490190914A01019690934A0180935C
:1005C00049018DCF0E94EF00B82E80931F0187CF85
:1005D000EE24E39480E047C00E94EF00BC01CE010E
:1005E0000E946A09CB01880F991F53E0660F771F9D
:1005F0005A95E1F7860F971F90932301809322016C
:1006000060912001709121010E946A097093250177
:100610006093240164CF0E94EF00909327018093A0
:1006200026015DCF70921F011093230100932201D8
:10063000F0922101E0922001D0922501C092240184
:10064000909227018092260110924B0144E0B42E33
:1006500046CF10924A011092490164C0EE2489E00D
:1006600002C0EE248BE09CE0B99EB02C1124B80EA1
:100670000E94CD008B3211F08332B9F48091490190
:1006800090914A01019690934A0180934901B39455
:10069000EFCF8091490190914A01019690934A01D0
:1006A00080934901BA940E94CD008D3291F3C0919C
:1006B0002401D09125018153883058F4C091220142
:1006C000D09123010E94EF00BC01CE010E946A0973
:1006D000EB018E010CC02091490130914A012F5F3E
:1006E0003F4F30934A0120934901C00FD11F169507
:1006F00007950E94CD008E3271F380914B018823C3
:1007000039F0CE019695879580934C01C81BD1098D
:10071000EE2011F0BB24BA948B2DBE01409126012E
:100720000E94EF01CDB7DEB7EDE00C94DC091F921B
:100730000F920FB60F9211242F933F934F935F9315
:100740006F937F938F939F93AF93BF93EF93FF9399
:1007500080914F01909150019C0121503040309385
:10076000500120934F01009711F510926F0078947B
:1007700080918100887F81608093810080E197E291
:10078000909389008093880010928B0010928A00C9
:1007900081E080931E018091490190914A01009768
:1007A00031F080914E01882311F40E944502FF919F
:1007B000EF91BF91AF919F918F917F916F915F91D9
:1007C0004F913F912F910F900FBE0F901F90189552
:1007D0000E94EF01089580911E01882351F081E06D
:1007E0002091490130914A012115310519F480E029
:1007F000089581E008950E94EB03089510926F0020
:1008000090934A018093490110924D0110924C013E
:100810000E94450208950E94FE03089510926F0001
:1008200090934A018093490181E080934D01109299
:100830004C010E94450208950E940E0408951092F2
:100840006F00E1E8F0E08081887F8160808380E153
:1008500097E2909389008093880010928B00109209
:100860008A0081E080931E0110924A011092490192
:1008700008950E941F04089580911E01882341F06D
:100880008091490190914A01009711F00E94450220
:1008900081E02091490130914A012115310509F487
:1008A00080E0089580934E01882311F40E943C0457
:1008B00008950E94520408950E943C04089580E027
:1008C00090E0089581E090E06F9364E06A95F1F71D
:1008D0006F910197C9F7089508950F931F93CF93D0
:1008E000DF931AB157985A98289AC0E0D0E00E9436
:1008F00062045C9A0E94620409B15C980E946204DE
:100900005C9A0E9462045C9807FF11C024969E01C5
:1009100040E050E08091550190915601A09157011F
:10092000B0915801281739074A075B0700F31AB935
:10093000DF91CF911F910F91089565B190E0AC01C7
:1009400041705070440F551F9C012670307053E069
:10095000220F331F5A95E1F7242B6D7C262B25B9E6
:100960002BB18870907034E0880F991F3A95E1F7A9
:100970002F77282B2BB95C9A0E9462045C980E9406
:1009800062040895A2E0B0E0E8ECF4E00C94C6093B
:10099000E82E4A8369830E946B050E946D0414B19E
:1009A000D5B0FAB00BB1289869814A81662311F05D
:1009B0005A9A01C05A9884B1826384B9579A4130D7
:1009C00029F08E2D82958F700E949D048E2D8F7040
:1009D0000E949D04FAB80BB914B9D5B82296E7E085
:1009E0000C94E20960E042E00E94C204089561E0D4
:1009F00042E00E94C2040895EF92FF921F93DF939A
:100A0000CF930F92CDB7DEB7660F660F660F7C01EE
:100A100010E0812F860F806469830E94F204F70141
:100A200084910E94F7041F5F0894E11CF11C698106
:100A3000183079F70F90CF91DF911F91FF90EF90D1
:100A400008950E94FC0408950E94F704089560E050
:100A500041E00E94C204089580E197E2A0E0B0E086
:100A60008093550190935601A0935701B09358017C
:100A7000529A209A549A8EE190E00E94B10883E045
:100A80000E94270586E090E00E94B10883E00E9462
:100A9000270582E090E00E94B10883E00E942705CC
:100AA00082E090E00E94B10882E00E94270582E087
:100AB00090E00E94B10888E20E94F20488E00E945F
:100AC000F20481E00E94F20486E00E94F2048CE0CD
:100AD0000E94F204089580915901882329F481E04D
:100AE000809359010E942C05089581E00E94F20430
:100AF0008091510190915201009711F1A0E0B0E274
:100B000008C0E0915101F0915201E20FF31FB08350
:100B1000AF5F2A2F30E08091400190E00197609113
:100B2000410170E0869FA001879F500D969F500D58
:100B30001124241735072CF31092540110925301FD
:100B400008950E94750508950E94F7040895CF93B3
:100B5000DF93C82FD92F02C00E94F7048991882300
:100B6000D9F7DF91CF9108950E94A7050895CF93FB
:100B7000DF93EC0103C00E94F7042196FE018491EB
:100B80008823C9F7DF91CF9108950E94B705089592
:100B90000E94A7050895AAE0B0E0E1EDF5E00C940D
:100BA000C3099B01AC011AE0EAE0CE2ED12CE12C66
:100BB000F12C5E010894A11CB11C022FCA01B901DD
:100BC000A70196010E947E091150F501E10FF11D68
:100BD000005D922F990F892F880F880F890F081BAE
:100BE0000083211531054105510539F708C0F6018B
:100BF000E10FF11D80810E94F7041F5F04C06E01A8
:100C00000894C11CD11C1A3090F32A96EAE00C9487
:100C1000DF09EF92FF920F931F937B018C0197FFE7
:100C20000BC010950095F094E094E11CF11C011D9F
:100C3000111D8DE20E94F704C801B7010E94CB0587
:100C40001F910F91FF90EF9008950E94090608955B
:100C50000E94CB0508958A3010F4805D01C0895C44
:100C60000E94F7040895CF93C82F82958F700E9439
:100C70002B068C2F8F700E942B06CF910895CF9357
:100C8000C82F892F0E9433068C2F0E943306CF91E4
:100C900008950E943F0608950E94330608951F9309
:100CA000CF93DF93182FD8E0C0E88C2F812311F069
:100CB00081E301C080E30E94F704D15011F0C69592
:100CC000F4CFDF91CF911F9108950E944F060895B0
:100CD000A5E0B0E0EEE6F6E00C94CA09182F80E833
:100CE000898380EC8A8384E98B8384ED8C83FE0185
:100CF000E60FF11D8181810F6D830E94F204109334
:100D000054016D81609353012596E3E00C94E6094C
:100D10000E9468060895A0E0B0E0E1E9F6E00C94D6
:100D2000C509D82E8091510190915201009709F484
:100D3000FAC08D2D8A3009F443C08830C9F48091FF
:100D400054018150809354018F3F51F4809153019D
:100D500081508093530180914101815080935401CF
:100D6000809153018F3F09F0D8C010925301D3C036
:100D70008D2D0E94F704809153018823B9F090E0F3
:100D800001974091410150E0849F9001859F300D73
:100D9000949F300D112480915401E0915101F09104
:100DA0005201E20FF31FE80FF11DD0828091540130
:100DB0008F5F8093540190914101891709F0B3C06E
:100DC00040915301242F30E08091400190E0019741
:100DD0002817390709F09CC0C0E0D0E041C080E08E
:100DE0006C2F0E946806CC248E010F5F1F4F33C00A
:100DF000EC2CFF2430E0C29FC001C39F900DD29F16
:100E0000900D1124E0915101F0915201EE0DFF1D62
:100E1000E80FF91F80810E94F704809151019091A1
:100E200052012091410130E0C29FF001C39FF00DBB
:100E3000D29FF00D11248E0D9F1DE80FF91F029F08
:100E4000D001039FB00D129FB00D1124A80FB91F40
:100E50008C918083C39420914101C21648F2E8012D
:100E600060914001862F90E00297C817D9070CF4D3
:100E7000B6CF6230E0F1625080E00E94680600E088
:100E800010E231C0C02FD0E08091400190E0029785
:100E900050E0849F9001859F300D949F300D112468
:100EA000E0915101F0915201EC0FFD1FE20FF31F91
:100EB00080810E94F7048091400190E00297409168
:100EC000410150E0849F9001859F300D949F300D2B
:100ED0001124E0915101F0915201EC0FFD1FE20F3E
:100EE000F31F10830F5F40914101041758F2609186
:100EF0004001615080E00E946806C0E004C080E2CA
:100F00000E94F704CF5F80914101C817C0F303C06E
:100F10004F5F4093530110925401809154016091AE
:100F200053010E9468062D2D332727FD3095C901F6
:100F3000CDB7DEB7E8E00C94E109813011F48FE021
:100F400001C08EE00E94F20408950E949D0708955A
:100F50008CE00E94F20408950E94A8070895CF93A0
:100F6000DF93C82FD62F08C0CC2311F480E101C035
:100F700084E10E94F204D150DD23B1F7DF91CF91DB
:100F800008950E94AF0708950F931F93CF93DF93A7
:100F9000182F062FEA010BC0112311F488E101C0BC
:100FA0008CE10E94F204CE010E94B108015000239E
:100FB00099F7DF91CF911F910F9108950E94C40777
:100FC00008958091510190915201009711F00E9473
:100FD0008C0A2091400130E0215030408091410145
:100FE00090E0AC01249FC001259F900D349F900D8F
:100FF00011240E94F20990935201809351010097AD
:1010000021F1A0E0B0E208C0E0915101F09152015D
:10101000E20FF31FB083AF5F2A2F30E080914001D1
:1010200090E001976091410170E0869FA001879F49
:10103000500D969F500D1124241735072CF38BE883
:1010400096E06FE574E00E94250B08950E94E10789
:10105000089580934101609340010E94E107089543
:1010600080934101609340010E94E10708956F93CE
:1010700064E06A95F1F76F910197C9F708952F928F
:101080008F939F932FB680915B0190915C010196A5
:1010900080935B0190935C0190E080915D01891FDA
:1010A00080935D01909163019C5F909363018091B7
:1010B000620180519742C0F0909363018093620176
:1010C00080915E0190915F01019680935E01909303
:1010D0005F0190E080916001891F809360018091A1
:1010E0006101891F809361012FBE9F918F912F9085
:1010F00018950F931F936F5F7F4F8F4F9F4F660F12
:10110000771F881F991F25E030E040E050E00E94E3
:101110007E09B901CA011F910F9108950F931F9382
:101120006F5F7F4F8F4F9F4F660F771F881F991FED
:1011300025E030E040E050E00E947E09B901CA019C
:101140001F910F910895CF93DF93EC0105C088EEB6
:1011500093E00E94370821972097C9F7DF91CF913C
:1011600008950E94A3080895E0E7F0E080818E7F53
:101170008083A0EBB0E08C9183608C93A1EBB0E016
:101180008C91807F8C938C9182608C93B89A8081B3
:10119000816080837894089580916401882329F484
:1011A00081E0809364010E94B40808950E94CC08F5
:1011B000E0E7F0E080818E7F808320915E013091B6
:1011C0005F01409160015091610180818160808365
:1011D000B901CA0108950E94D60808950E94CC085A
:1011E000809170008E7F809370002091B20080917A
:1011F0005A0190915B01A0915C01B0915D01B89999
:1012000004C030E040E050E011C08091B200209175
:101210005A0130915B0140915C0150915D01205079
:101220003F4F4F4F5F4F90E0A0E0B0E0282B392BAD
:101230004A2B5B2B80917000816080937000B90114
:10124000CA0108950E94EE0808950E94CC08E0E7C4
:10125000F0E080818E7F808310925E0110925F01AA
:10126000109260011092610110926301109262016C
:1012700080818160808308950E9425090895629F7E
:10128000D001739FF001829FE00DF11D649FE00D7E
:10129000F11D929FF00D839FF00D749FF00D659FDF
:1012A000F00D9927729FB00DE11DF91F639FB00DDE
:1012B000E11DF91FBD01CF0111240895991B79E0AB
:1012C00004C0991F961708F0961B881F7A95C9F7D6
:1012D00080950895AA1BBB1B51E107C0AA1FBB1F25
:1012E000A617B70710F0A61BB70B881F991F5A95B2
:1012F000A9F780959095BC01CD010895A1E21A2E21
:10130000AA1BBB1BFD010DC0AA1FBB1FEE1FFF1FA9
:10131000A217B307E407F50720F0A21BB30BE40BF9
:10132000F50B661F771F881F991F1A9469F7609540
:101330007095809590959B01AC01BD01CF010895FA
:1013400097FB092E05260ED057FD04D0D7DF0AD013
:10135000001C38F450954095309521953F4F4F4FE4
:101360005F4F0895F6F790958095709561957F4F42
:101370008F4F9F4F08952F923F924F925F926F929F
:101380007F928F929F92AF92BF92CF92DF92EF9215
:10139000FF920F931F93CF93DF93CDB7DEB7CA1B96
:1013A000DB0B0FB6F894DEBF0FBECDBF09942A88C1
:1013B000398848885F846E847D848C849B84AA8469
:1013C000B984C884DF80EE80FD800C811B81AA81F6
:1013D000B981CE0FD11D0FB6F894DEBF0FBECDBFC1
:1013E000ED010895CF93DF938230910510F482E0F0
:1013F00090E0E0916701F091680140E050E020E06A
:1014000030E026C06081718168177907E0F06817C5
:10141000790781F4828193812115310531F0D90159
:1014200013969C938E9312972BC090936801809390
:10143000670126C04115510519F06417750718F4A6
:10144000AB01E901DF019F0172816381E72FF62F74
:101450003097C1F64115510501F1481B590B443035
:10146000510580F412968D919C911397209719F055
:101470009B838A8304C09093680180936701FD0178
:10148000329646C0FD01E40FF51F819391934250BF
:10149000504011965C934E933BC020916501309172
:1014A00066012115310541F4209144013091450137
:1014B00030936601209365012091460130914701E8
:1014C0002115310541F42DB73EB7409142015091AD
:1014D0004301241B350BE0916501F0916601E21791
:1014E000F307A0F42E1B3F0B2817390778F0AC0147
:1014F0004E5F5F4F2417350748F04E0F5F1F509324
:101500006601409365018193919302C0E0E0F0E0B1
:10151000CF01DF91CF910895CF93DF93009709F426
:1015200091C0FC0132971382128260916701709121
:1015300068016115710581F420813181280F391FFF
:1015400080916501909166018217930799F5F09358
:101550006601E093650176C0DB0180E090E002C0A7
:10156000CD01D901AE17BF0748F412962D913C91D9
:10157000139721153105A1F7CD0121C0B383A283B3
:10158000EF01499159919E01240F351FA217B3070E
:1015900079F42D913C911197240F351F2E5F3F4F09
:1015A0003183208312962D913C91139733832283AC
:1015B000009729F4F0936801E093670143C0DC01D0
:1015C0001396FC93EE9312974D915D91A40FB51F66
:1015D000EA17FB0769F420813181240F351F2E5F44
:1015E0003F4FEC0139832883228133813B832A8357
:1015F000E0E0F0E002C0FB01BC01DB0112968D913E
:101600009C9113970097B9F79B012E5F3F4F8D91E7
:101610009C911197820F931F409165015091660133
:101620004817590779F4309729F4109268011092FD
:10163000670102C01382128222503040309366014B
:1016400020936501DF91CF9108950F931F93CF935E
:10165000DF938C01EB01009711F42097C9F181E031
:1016600090E06EE070E00E94700BFC019C0100971E
:1016700089F180E88383209771F0D387C28781E85E
:1016800083838091690190916A01009721F4F0931E
:101690006A01E093690101151105E1F011870087E6
:1016A00083818260838380916B0190916C010097AC
:1016B00089F4F0936C01E0936B0180916D0190913E
:1016C0006E01009739F4F0936E01E0936D0102C052
:1016D00020E030E0C901DF91CF911F910F91089573
:1016E0000F931F93CF93DF93689F8001699F100D25
:1016F000789F100D1124C8010E94F209C82FD92F1C
:10170000209731F08C2F60E070E0A8010E948E0BD2
:10171000CE01DF91CF911F910F910895DC0101C09F
:0E1720006D9341505040E0F70895F894FFCFCC
:10172E0048656C6C6F210064656275672068656C36
:10173E006C6F004C3136206365673E630001010417
:10174E000400D007F4010F009C01B501CF01EA019E
:10175E0007022602470269028E02B502DE020A0362
:08176E00020820006F010000D9
:00000001FF
