:1000000056C000007BC0000079C0000077C000002F
:1000100075C0000073C0000071C000006FC0000018
:100020006DC000000C94680A69C0000067C0000041
:1000300065C00000E5C6000061C000005FC00000B0
:100040005DC000005BC0000059C0000057C0000048
:1000500055C0000053C0000051C000004FC0000058
:100060004DC000004BC0000020506F6C6F6C7500DD
:1000700033F720526F626F74004D617A6500736FC1
:100080006C766572003E6733323E3E633332004C1D
:1000900031362063646567726567340000000000D4
:1000A0000000001F1F1F1F1F1F1F3A0B3B0B1124B7
:1000B0001FBECFEFD8E0DEBFCDBF11E0A0E0B1E0C2
:1000C000EAE9F4E202C005900D92AA3CB107D9F723
:1000D00012E0AAECB1E001C01D92A234B107E1F731
:1000E00010E0CCEAD0E004C02297FE010E940A1181
:1000F000CA3AD107C9F7ACD00C94411281CF809194
:100100000F018F5F80930F010895AAE0B0E0EBE844
:10011000F0E00C94DD1080ED97E00E94380BA1D048
:1001200088E690E00E94B20880E061E00E94290920
:1001300080E790E00E94B20885E890E0DCD688EE87
:1001400093E00E94AF0AF1D789E790E00E94B208DD
:1001500080E061E00E9429098EE790E00E94B208E9
:1001600088EE93E016C096D38C01DFD7B8018827BC
:1001700077FD8095982F0E940A0980E091E0E3D7EF
:1001800080E061E00E94290983E091E0DCD784E609
:1001900090E00E94AF0A80E10E945E0A882319F372
:1001A00080E10E944E0A88EE93E00E94AF0A0CEEB6
:1001B0001FEF0832110528F088E290E068ED7FEF2C
:1001C00004C088ED9FEF68E270E00E94230A81E09E
:1001D0000E94FE0A84E190E00E94AF0A0F5F1F4F69
:1001E0000C33110531F780E090E060E070E00E9490
:1001F000230A8E010F5F1F4F15C0C80161E00E94E6
:10020000020B7C0192D7B70180E090E00E940A09BE
:1002100080E061E00E942909C80146D084E690E0B0
:100220000E94AF0A80E10E945E0A882331F380E1D8
:100230000E944E0A7AD78BE091E085D78FE890E054
:100240005AD63ED68823E9F72A96E6E00C94F910B0
:100250005CDFD1D0FFCF809110018F5F80931001C0
:100260000895CF93DF93CCE9D0E0CE0160E0F2D6E1
:10027000CE01019661E0EED6CE01029662E0EAD6AA
:10028000CE01039663E0E6D6CE01049664E0E2D6A2
:10029000CE01059665E0DED6CE01069666E0DAD69A
:1002A00044D7DF91CF910895AAE0B0E0EAE5F1E00C
:1002B0000C94DA10082F192F95E0B92E7E010894BE
:1002C000E11CF11C85E6C82ED12CD701E1E1F1E05B
:1002D0008AE001900D928150E1F7F80181919191AE
:1002E0008F01B6010E946D106E0D7F1DFB01808194
:1002F000B3D6BA9451F72A96E9E00C94F61080919F
:1003000095018F5F809395010895E091CA01F0E017
:10031000EF5CFE4F108209D781E391E014D7809102
:10032000CA01893030F080E061E093D789E391E041
:100330000AC70895882331F4662331F4442331F049
:1003400082E508958CE4089583E5089582E4089594
:100350004091CA01433008F44DC0242F30E0F90128
:10036000EF5CFE4FDF0112978C91823409F042C09E
:10037000B901625D7E4F80E090E0319750815C343E
:1003800041F0523519F0523449F406C0865A9F4F55
:1003900005C0825F9E4F02C08C549F4FE617F7073F
:1003A00061F768E671E00E9481108A35910591F04D
:1003B0008B3591051CF4009749F019C0843B9105D9
:1003C00069F051E08E30950791F40CC0225D3E4FEC
:1003D00083E50BC0225D3E4F82E507C0225D3E4FA4
:1003E00082E403C0225D3E4F8CE4F90180834250D9
:1003F0004093CA010895AAE0B0E0E1E0F2E00C9475
:10040000D9108E010F5F1F4FC4D082E390E062E3EA
:1004100070E00E94230A82E390E00E94AF0AC801C4
:1004200061E00E94020BC980DA80E984FA8488E2E4
:1004300090E068E270E00E94230A88EC90E00E945D
:10044000AF0AC80161E00E94020B8B819C81893C4C
:10045000910560F48D819E81893C9105B8F48F816E
:100460009885893C910590F460E011C022E08935BF
:10047000920760F08D819E81E2E089359E0730F021
:100480008F819885F2E089359F07E8F461E081E08B
:1004900025E6C216D10408F480E041E095E6E916AD
:1004A000F10408F440E046DFE82EF4D08091CA0160
:1004B000E82FF0E0EF5CFE4FE0828F5F8093CA018F
:1004C00047DF23DFA1CF90EDA92E97E0B92EC12CF5
:1004D000D12C80E090E060E070E0B5D78BE191E056
:1004E000FCD41EC00E94E60AA60195010E94941049
:1004F000683EE3E07E07E0E08E07E0E09E0758F408
:1005000014D681E291E01FD680E061E0A2D689E2B4
:1005100091E019D601C0F9DE8EE190E00E94AF0AA9
:1005200080E1CCD78823F1F280E1C8D78823E1F7B6
:1005300088EE93E00E94AF0A81E3E82E81E0F82E76
:1005400000E010E018C025D082E390E062E370E0A4
:100550007AD782E390E00E94AF0A88E290E068E2F6
:1005600070E071D788EC90E0FAD7F70181917F01B4
:1005700091D00F5F1F4F8091CA0190E008171907B3
:1005800014F307D0A6CF809196018F5F80939601D8
:100590000895AAE0B0E0EFECF2E00C94D110CC2486
:1005A000DD247601AA24BB242E010894411C511C91
:1005B0005CE3252E312C01C05801C20161E00E948C
:1005C000020B8C01005D1740C801AA2797FDA0957A
:1005D000BA2FC80ED91EEA1EFB1EC701B60120E1C4
:1005E00037E240E050E00E94B61039014A0198011C
:1005F0002A193B09C901880F991F820F931F62E0D6
:1006000070E00E9481109B01260D371DC80164E136
:1006100070E00E948110260F371F2D33310574F4CE
:100620008FEF243C38071CF037FD03C009C024ECD1
:100630003FEFC901CC966CE370E007C02CE330E0DB
:10064000B101621B730B8CE390E0FDD68B819C8122
:100650008436910550F48D819E818436910528F46D
:100660008F8198858436910558F089819A81893CDB
:10067000910530F489859A85893C910508F49CCFD1
:100680002A96E2E10C94ED10809197018F5F8093A0
:10069000970108958C3429F0823541F08234B1F409
:1006A0000DC080EB9FEF60E570E004C080E590E056
:1006B00060EB7FEFC8D688EC90E051C780E590E012
:1006C00060EB7FEFC0D680E991E049C708958823A9
:1006D00021F480917C008F7D03C080917C0080623A
:1006E00080937C00089580917C0090E025E09595B2
:1006F00087952A95E1F78170089580917A0090E0BE
:1007000036E0959587953A95E1F781700895EBDF8E
:10071000882321F02091790030E004C020917800F6
:1007200030917900C90108958032B0F497E8909330
:100730007A0090917C00292F2064662311F0906C40
:1007400002C0922F9F77907E982B90937C0080918F
:100750007A00806480937A000895A0E0B0E0E3EB33
:10076000F3E00C94DB106B0160E0DEDFC6DF882372
:10077000E9F7E601EE24FF24870180917A00806486
:1007800080937A00BADF8823E9F7C1DFA0E0B0E008
:10079000E80EF91E0A1F1B1F219779F7C6019695CF
:1007A000879520E4C216D10440F48E0D9F1D6C2D58
:1007B00070E00E946D10CB010DC0BC0180E090E0A4
:1007C0006E0D7F1D801F911F960140E050E00E943A
:1007D0009410C901CDB7DEB7E8E00C94F710A3E0A0
:1007E000B0E0E5EFF3E00C94E010BC0180E090E0B5
:1007F000209198013091990140E050E00E94421010
:10080000182F69837A839B836EDF69817A819B814C
:10081000882371F09B01412F592FCA01B9016158FA
:100820007F4F8F4F9F4F2FEF30E040E050E00DC0E3
:100830009B01412F592FCA01B90161507E4F8F4F43
:100840009F4F2FEF33E040E050E00E949410C90129
:100850002396E3E00C94FC1080DFC1CF1F93CF936D
:10086000DF9341DF182F80E032DF86E06AE070E03E
:10087000F3DFEC01812F2BDF9E01220F331F2C0FA2
:100880003D1F2F5F3F4F36952795C901DF91CF91CF
:100890001F910895E3CF08959091D001E091CC018C
:1008A000F091CD01992311F0849101C08081282F0E
:1008B00021542A3110F4805E0895803271F4209121
:1008C000CC013091CD01A9014F5F5F4F5093CD0115
:1008D0004093CC012115310509F70895CF93DF939B
:1008E000DBDFC0E0D0E01AC09E01220F331F93E08F
:1008F000CC0FDD1F9A95E1F7C20FD31F992787FD13
:100900009095C80FD91FE0978091CC019091CD01AF
:1009100001969093CD018093CC01BEDF982F905328
:100920009A3010F3CE01DF91CF91089510926F00AD
:1009300083E28093800081E18093810010928200A5
:1009400080E197E2909389008093880010928B0059
:1009500010928A00229A789408958091CB0188237E
:1009600021F481E08093CB01E1CF0895A0E0B0E0D5
:10097000ECEBF4E00C94D9108C015B01E42EEDDF7C
:1009800010929A0117FF04C01F77FAE0FF2E02C0F1
:10099000FF24F394C0908100DD2428EFC222DD24DF
:1009A00088EC6F2D689FC001112480179107D8F43F
:1009B000E80177E20131170710F0C0E1D7E2BE018C
:1009C0007695679580E090E06058794687469F4F1E
:1009D0009E0140E050E00E949410890181E090E087
:1009E000C82AD92A28C098E2F99E902D112480E0C7
:1009F000C92FD82FC017D10708F4E801BE0176959A
:100A000067959E0140E050E09F2D9A3039F480E0D8
:100A100090E0605E734481449F4F06C080E090E0A8
:100A200060537D4E8C4E9F4F0E949410890162E06E
:100A300070E0C62AD72A7F2D7A3039F4CE01059688
:100A40006AE070E00E946D10EB0183E0C83ED807B9
:100A500079F0BE0180E090E0950140E050E00E9416
:100A6000421028EE33E040E050E00E94B61001C092
:100A7000950110926F00C09281001093890000933D
:100A8000880040918800509189006E2D603108F0F7
:100A90006FE080E190E0861B9109BA0102C0769573
:100AA00067958A95E2F770938B0060938A00309384
:100AB000D3012093D20186B38FEF86BB81E0809370
:100AC0006F00CDB7DEB7EAE00C94F5109B018F3FC5
:100AD00011F0442329F488EE93E0B90140E049C0C5
:100AE000813130F0582F5051503618F05FE501C079
:100AF00050E0852F6CE00E946110A82FB0E0E4EF79
:100B0000FFEFAE9FB001AF9F700DBE9F700D11241F
:100B1000650F711D6C30710540F4FB01EE0FFF1F76
:100B2000EC55FE4F6081718102C060E070E087305B
:100B300081F0082E02C0660F771F0A94E2F7823018
:100B400028F0CB0105966AE070E00CC06050704858
:100B50000BC0CB01A6E0880F991FAA95E1F702967A
:100B600065E070E00E946D10403108F04FE0CB016D
:100B7000B901FCCEA0E0B0E0E0ECF5E00C94D610BA
:100B8000B0909B018091CE01882359F06091CF01F4
:100B9000662339F08FEF70E040E098DF1092CF01CC
:100BA0002AC1C0ECDDE5AA24A39414E0712E00ED67
:100BB00017E0B4E0EB2EF12CA4EFCA2EA1E0DA2E60
:100BC000FFE08F2E912C68DE2091CC013091CD0179
:100BD0002F5F3F4F3093CD012093CC018636F1F14A
:100BE0008736CCF4823609F4AAC083367CF48E337F
:100BF00049F18F333CF4813209F482C08C3309F01F
:100C000096C022C0813609F092C096C0843601F1A8
:100C100085360CF51BC08F3609F445C0803744F487
:100C20008C3611F18D3659F1873609F080C019C024
:100C3000843709F441C0863709F45CC0823709F073
:100C400076C036C0B394BFCFBA94BDCFEE2432C0C5
:100C5000EE2482E076C0EE2484E073C0EE2485E0CA
:100C600070C0EE2487E06DC039DEBC0190939D0119
:100C700080939C0180919E0190919F0134C00CDE75
:100C80008C3619F41092CE0104C0A092CE011092BD
:100C9000CF018091CC019091CD0101969093CD012F
:100CA0008093CC0190CF1ADEB82E80939B018BCF1E
:100CB000EE24E39480E045C011DEBC01CE010E9429
:100CC0006D10CB01880F991F53E0660F771F5A955F
:100CD000E1F7860F971F90939F0180939E0160918B
:100CE0009C0170919D010E946D107093A101609311
:100CF000A00169CFF3DD9093A3018093A20163CF9C
:100D000070929B0110939F0100939E01F0929D01B0
:100D1000E0929C01D092A101C092A0019092A30107
:100D20008092A2011092CE0144E0B42E4CCF1092DA
:100D3000CD011092CC015FC0EE2489E002C0EE2408
:100D40008BE09CE0B99EB02C1124B80EA5DD8B324F
:100D500011F08332B1F48091CC019091CD010196D4
:100D60009093CD018093CC01B394F0CF8091CC01CE
:100D70009091CD0101969093CD018093CC01BA94CE
:100D80008BDD8D3299F3C091A001D091A1018153E7
:100D9000883050F4C0919E01D0919F019FDDBC012D
:100DA000CE010E946D10EB018E010CC02091CC0190
:100DB0003091CD012F5F3F4F3093CD012093CC0177
:100DC000C00FD11F1695079567DD8E3279F380919C
:100DD000CE01882339F0CE01969587958093CF0177
:100DE000C81BD109EE2011F0BB24BA948B2DBE0193
:100DF0004091A2016BDECDB7DEB7EDE00C94F210AE
:100E00001F920F920FB60F9211242F933F934F937F
:100E10005F936F937F938F939F93AF93BF93EF9362
:100E2000FF938091D2019091D3019C0121503040D9
:100E30003093D3012093D201009709F510926F00EF
:100E4000789480918100887F81608093810080E127
:100E500097E2909389008093880010928B00109203
:100E60008A0081E080939A018091CC019091CD011C
:100E7000009729F08091D101882309F47BDEFF914E
:100E8000EF91BF91AF919F918F917F916F915F9102
:100E90004F913F912F910F900FBE0F901F9018957B
:100EA00080919A01882351F081E02091CC0130910A
:100EB000CD012115310519F480E0089581E00895F0
:100EC000EFCF089510926F009093CD018093CC01E5
:100ED0001092D0011092CF014DCEF4CF0895109210
:100EE0006F009093CD018093CC0181E08093D0017D
:100EF0001092CF013FCEF3CF089581E090E06F9341
:100F000064E06A95F1F76F910197C9F708950F931F
:100F10001F93CF93DF931AB157985A98289AC0E03D
:100F2000D0E0EBDF5C9AE9DF09B15C98E6DF5C9A20
:100F3000E4DF5C9807FF11C024969E0140E050E07A
:100F40008091D8019091D901A091DA01B091DB0193
:100F5000281739074A075B0720F31AB9DF91CF91A9
:100F60001F910F91089565B190E0AC0141705070F0
:100F7000440F551F9C012670307053E0220F331F21
:100F80005A95E1F7242B6D7C262B25B92BB188705F
:100F9000907034E0880F991F3A95E1F72F77282B4E
:100FA0002BB95C9AAADF5C98A8CFA2E0B0E0EBED89
:100FB000F7E00C94DC10E82E4A83698382D0A7DF27
:100FC00014B1D5B0FAB00BB1289869814A81662373
:100FD00011F05A9A01C05A9884B1826384B9579A21
:100FE000413021F08E2D82958F70BDDF8E2D8F7058
:100FF000BADFFAB80BB914B9D5B82296E7E00C9469
:10100000F81060E042E0D1CF61E042E0CECFEF9255
:10101000FF921F93DF93CF930F92CDB7DEB7660F8A
:10102000660F660F7C0110E0812F860F8064698354
:10103000E8DFF7018491E8DF1F5F0894E11CF11CF1
:101040006981183089F70F90CF91DF911F91FF9040
:10105000EF900895DCCF0895D7CF089560E041E088
:10106000A4CF80E197E2A0E0B0E08093D801909314
:10107000D901A093DA01B093DB01529A209A549AD5
:101080008EE190E06CD283E0E9DF86E090E067D209
:1010900083E0E4DF82E090E062D283E0DFDF82E0A1
:1010A00090E05DD282E0DADF82E090E058D288E220
:1010B000A8DF88E0A6DF81E0A4DF86E0A2DF8CE085
:1010C000A0CF8091DC01882321F481E08093DC01B2
:1010D000C8CF089581E095DF8091D4019091D5012A
:1010E000009711F1A0E0B0E208C0E091D401F091C6
:1010F000D501E20FF31FB083AF5F2A2F30E080915C
:10110000BC0190E001976091BD0170E0869FA00155
:10111000879F500D969F500D1124241735072CF3EF
:101120001092D7011092D6010895D4CF0895CF938D
:10113000DF93C82FD92F01C067DF89918823E1F79A
:10114000DF91CF910895F3CF0895CF93DF93EC0112
:1011500002C05ADF2196FE0184918823D1F7DF91E6
:10116000CF910895F2CF0895AAE0B0E0EAEBF8E05D
:101170000C94D9109B01AC011AE0EAE0CE2ED12CE0
:10118000E12CF12C5E010894A11CB11C022FCA01B4
:10119000B901A7019601C8D71150F501E10FF11D62
:1011A000005D922F990F892F880F880F890F081BD8
:1011B0000083211531054105510541F707C0F601AE
:1011C000E10FF11D808120DF1F5F04C06E010894D4
:1011D000C11CD11C1A3098F32A96EAE00C94F51041
:1011E000EF92FF920F931F937B018C0197FF0AC030
:1011F00010950095F094E094E11CF11C011D111D67
:101200008DE202DFC801B701AFDF1F910F91FF90A0
:10121000EF900895E5CF0895A5E0B0E0E1E1F9E0B1
:10122000CFC7182F80E8898380EC8A8384E98B8379
:1012300084ED8C83FE01E60FF11D8181810F6D83AA
:10124000E0DE1093D7016D816093D6012596E3E02F
:10125000D3C7E2CF0895FC0111821082138212825B
:10126000158214821682683068F489E290E09183D6
:1012700080838BE290E0938382838AE290E095837F
:10128000848311C06E30C0F483E290E09183808348
:1012900085E290E09383828384E290E09583848367
:1012A00070E06850704081E090E002C0880F991FA4
:1012B0006A95E2F7868308956531B8F486E290E096
:1012C0009183808388E290E09383828387E290E039
:1012D0009583848370E06E50704081E090E002C09E
:1012E000880F991F6A95E2F786830895FC01A4810F
:1012F000B5818681662321F09C91982B9C9308955B
:101300009C91809589238C930895FC016F3F31F463
:10131000A281B3818C91968189270CC0A281B3816F
:101320008681662321F09C91982B9C9308959C9133
:10133000809589238C930895A7E0B0E0E1EAF9E075
:101340003DC7282FF62E8E010F5F1F4FC801622F59
:1013500082DFC8016F2DD9DFC80161E0C7DF2796A2
:10136000E5E048C7E0EBF0E083EF8083808184BD57
:10137000E1EBF0E082E08083808185BDE4EBF0E08A
:1013800010828081E3EBF0E08083808188BD88B5A6
:1013900087BD86E060E0D0DF85E060E0CDDF8BE0F8
:1013A00060E0CADF83E060E0C7CF8091DD01882381
:1013B00021F481E08093DD01D5CF0895CF93DF93B1
:1013C000EC01F3DFD7FF05C0D095C195DF4F81E079
:1013D00001C080E0CF3FD10519F014F0CFEFD0E08D
:1013E000882319F018BCC7BD02C0C8BD17BCDF9167
:1013F000CF910895CF93DF93EC01D7DFD7FF05C0DE
:10140000D095C195DF4F81E001C080E0CF3FD1058D
:1014100019F014F0CFEFD0E0882329F01092B40037
:10142000C093B30004C0C093B4001092B300DF9126
:10143000CF910895CF93DF93EB01C0DFCE01DADFC8
:10144000DF91CF910895F6CF089584B18D7C84B952
:1014500085B1826385B985E090E06F9364E06A9519
:10146000F1F76F910197C9F708958091DE01882304
:1014700021F481E08093DE01E8CF0895CF93C82F57
:10148000F4DF83B18C23E9F38AE090E068D083B184
:101490008C23B9F383B18C23CF910895EFCF0895B6
:1014A000A1E0B0E0E5E5FAE08CC68983DEDF93B128
:1014B0009095898189232196E2E09FC6F1CF089516
:1014C0006F9364E06A95F1F76F910197C9F70895FA
:1014D0002F928F939F932FB68091EC019091ED0105
:1014E00001968093EC019093ED0190E08091EE01E4
:1014F000891F8093EE019091F4019C5F9093F40119
:101500008091F30180519742C0F09093F401809351
:10151000F3018091EF019091F00101968093EF012A
:101520009093F00190E08091F101891F8093F10187
:101530008091F201891F8093F2012FBE9F918F91BC
:101540002F901895CF93DF93EC0104C088EE93E0C1
:10155000B7DF21972097D1F7DF91CF910895F2CF90
:101560000895E0E7F0E080818E7F8083A0EBB0E01B
:101570008C9183608C93A1EBB0E08C91807F8C93F5
:101580008C9182608C93B89A8081816080837894FA
:1015900008958091F501882321F481E08093F5017D
:1015A000E0CF0895F6DFE0E7F0E080818E7F808372
:1015B0002091EF013091F0014091F1015091F20141
:1015C000808181608083B901CA010895EBCF0895BD
:1015D000E0DFE0E7F0E080818E7F80831092EF0112
:1015E0001092F0011092F1011092F2011092F401A8
:1015F0001092F3018081816080830895682F86EFC7
:1016000091E004C59C01462F86EF91E0B90120E0EE
:101610005DC30F93DF93CF9300D000D00F92CDB76F
:10162000DEB79C01962FDE011196EEEBF1E085E02E
:1016300001900D928150E1F7BE016F5F7F4F9923BA
:1016400029F086EF91E045E00FEF04C086EF91E0CE
:1016500045E003E16CD086EF91E042D0B9DF0F9016
:101660000F900F900F900F90CF91DF910F910895F1
:1016700060E0CFCF089586EF91E0EAC46F9364E015
:101680006A95F1F76F910197C9F70895A7E0B0E067
:10169000EBE4FBE094C58C01FC0111821082138203
:1016A00012821582148217821682613118F080E14D
:1016B000808702C0FC016087F801208BCE01019673
:1016C000642FC9DD8F81F80181878B819C8193878D
:1016D00082878D819E81958784872796E4E08BC5DC
:1016E000FC01A485B585109771F08C919185892BAB
:1016F0008C93A285B3859C918185809589238C9359
:1017000088EC90E0BBCF0895FC01A485B5851097C7
:1017100069F08C919185892B8C93A285B3858C91EE
:101720009185892B8C9388EC90E0A8CF0895A7E051
:10173000B0E0ECE9FBE035C57C011B01642F390109
:10174000402F20E0A3DF97012F5B3F4FF90110826C
:10175000D701AE5BBF4F1C92C7018D5B9F4FFC0151
:101760001082F7017786668666242E010894411C54
:10177000511C6C015D01490128C0062D10E0F101EA
:10178000E00FF11FC201608166DD2F81F701E00FDC
:10179000F11F218B89819A81F801EE0FFF1FEE0D59
:1017A000FF1D92A381A38332910511F4F40109C0B6
:1017B0008632910511F4F50104C08932910521F4B6
:1017C000F6018081822B80836394F70180856816FF
:1017D000A0F22796E2E101C5A0E0B0E0E1EFFBE076
:1017E000E5C4EC015B01FC01EF5BFF4F8080FC0175
:1017F000EE5BFF4F7080FC01ED5BFF4F908080E05F
:1018000009C0E82FF0E0EE0FFF1FEA0DFB1D11826B
:1018100010828F5F98858917A0F384B121E4E22EAE
:10182000F12CEC0EFD1ED7019C91892B84B987B158
:101830008E010E5B1F4FF8019081892B87B98AB109
:1018400093E4C92ED12CCC0EDD1ED6019C91892BA0
:101850008AB985B1F7019081892B85B988B1D80102
:101860009C91892B88B98BB1F6019081892B8BB91A
:101870008AE090E003DF94B1D7018C9180958923B1
:1018800084B997B1F80180818095892387B99AB18D
:10189000D6018C91809589238AB995B1F701808111
:1018A0008095892385B998B1D8018C918095892339
:1018B00088B99BB1F6018081809589238BB91091FD
:1018C000B000C090B1008091B00083608093B00000
:1018D00082E08093B100E090B20080E090E039C0F7
:1018E0002091B2002E19820F911DE20EF3B0F81470
:1018F00009F04DC086B0871409F049C029B12915F7
:1019000009F045C024C0202F30E0A901440F551F25
:10191000F501E40FF51F608171816115710599F47E
:101920004C0F5D1FDA0191964D915C919297DA010F
:101930004C912C0F3D1FD90151962C915197422368
:1019400011F4918380830F5F28850217E0F2782CD1
:101950008F2C2E853F858217930710F21093B000CD
:10196000C092B10020E00FC0E22FF0E0EE0FFF1FA9
:10197000EA0DFB1D80819181009721F48E859F8562
:10198000918380832F5F8885281770F305C0F3B09B
:1019900086B099B000E0D8CFCDB7DEB7EDE022C475
:1019A000A0E0B0E0E5EDFCE007C4FC019B01E090A5
:1019B0007C00F0907A00D7B008B180917A0086FD63
:1019C000FCCF80E00AC0A82FB0E0AA0FBB1FA20F77
:1019D000B31F11961C921E928F5F9085891798F302
:1019E00097B182A18095892387B998B182A180950A
:1019F000892388B987E880937A0070E029C0DF01E5
:101A0000A60FB11D51968C915197806480937C00F4
:101A100080917A00806480937A0080917A0086FDBC
:101A2000FCCFA62FB0E0AA0FBB1FA20FB31F40919F
:101A30007800509179008D919C911197840F951F9A
:101A400011969C938E936F5F80856817C0F27F5FBD
:101A500081A1781710F460E0F7CF10E013C0C12F18
:101A6000D0E0CC0FDD1FC20FD31F61A170E0CB010E
:101A70009595879548815981840F951F2ED3798339
:101A800068831F5F8085181750F3E0927C00F09206
:101A90007A0008B9D7B8CDB7DEB7E7E0A9C3A0E2AE
:101AA000B0E0E4E5FDE088C38C017B01D42E842FF7
:101AB0008150823010F4C80127DED80150968C91F5
:101AC0005097882371F4C801B70186DEC80108DE8B
:101AD000BD2DB230B9F5C801BE016F5F7F4F7CDE0E
:101AE0000DC0C801B7015CDFC801FADDED2DE230A1
:101AF00049F5C801BE016F5F7F4F52DF60E0AE0164
:101B00004F5F5F4F1BC0862F90E0880F991FF70132
:101B1000E80FF91F840F951FD8011E962D913C9157
:101B20001F97DC018D919C911197281B390B8081A7
:101B30009181820F931F918380836F5FF80180856D
:101B4000681708F3A096E7E053C38F929F92AF9275
:101B5000BF92CF92DF92FF920F931F93CF93DF93A9
:101B6000EC01C62E072FF42E423011F0FF2051F465
:101B70008C819D81009709F49DC08E819F81009783
:101B800009F498C08F2D8150823050F4888199815A
:101B9000009709F48FC08A819B81009709F48AC05D
:101BA000CE016C2D702F4F2D7ADFAC2CB02E00E0C3
:101BB00010E08824992478C08F2D813059F4EA816F
:101BC000FB81E00FF11FC080D180E881F981E00F37
:101BD000F11F0DC08C819D81FF2061F4EE81FF819A
:101BE000E00FF11FC080D180800F911FFC01408168
:101BF00051812BC0800F911FFC0180819181E88170
:101C0000F981E00FF11F40815181CE84DF84841778
:101C1000950710F4A60104C04C0D5D1D481B590B1F
:101C2000EE81FF81E00FF11F80819181EA81FB81CC
:101C3000E00FF11F20813181CE84DF84821793076A
:101C400020F0C20ED31EC81AD90AC41AD50AC1F090
:101C5000F5016081718180E090E09A0140E050E000
:101C6000621B730B840B950B28EE33E040E050E0D1
:101C700009D2960140E050E079D237FD0AC002C097
:101C800020E030E0F3E0293E3F072CF028EE33E07F
:101C900002C020E030E0F501219331935F01089408
:101CA000811C911C0E5F1F4F888590E08816990655
:101CB0000CF482CFDF91CF911F910F91FF90DF90B5
:101CC000CF90BF90AF909F908F900895A7E0B0E025
:101CD000EBE6FEE066C24C01C62EE72E2D8335DF13
:101CE000D40118964C901897DE2C642D70E080E09B
:101CF00090E028EE33E040E050E0C4D169837A837D
:101D00008B839C83EE24FF24870166247724882418
:101D100099245401552438EE232E33E0332E39C054
:101D2000F6013081218182E090E0C80ED91EC90100
:101D3000292F382F3F832E839D81992329F0D101AC
:101D4000A21BB30BBF83AE83EE81FF81E93CF1059B
:101D500024F4E333F105ACF002C0552453942E81F2
:101D60003F81B901882777FD8095982FA8019701B9
:101D700089D1860E971EA81EB91E8E819F81680E7E
:101D8000791E88EE93E0A0E0B0E0E80EF91E0A1F8D
:101D90001B1F89819A81AB81BC81E816F9060A076D
:101DA0001B0709F0BDCF5520F1F4552408944108D4
:101DB000510824EF31E0429EC001439E900D529E97
:101DC000900D112420913A0230913B0228173907D7
:101DD000ACF088EE93E0489E9001499E300D589EED
:101DE000300D11240DC0930140E050E0C501B40155
:101DF0009BD120933A0230933B0202C020E030E0B6
:101E0000C9012796E2E1E9C1A7E6B0E0E9E0FFE019
:101E1000C8C18C014B016A01A6962FAFA697DA01C3
:101E20008D919C9111970097E1F4F801808590E0E5
:101E3000880F991FF3D1D60111969C938E9300972A
:101E400009F4E0C0FC0180E090E003C0119211921F
:101E50000196D80118962C91189730E082179307B5
:101E6000ACF3F40180819181009789F0EE24FF2486
:101E70005E010894A11CB11CB1E46B2E712C6C0E98
:101E80007D1EA1E24A2E512C4C0E5D1E22C0D801AF
:101E900018968C9190E0880F991FC0D1F40191831E
:101EA0008083009709F4AEC0FC0180E090E0D80187
:101EB00007C01E962D913C911F9721933193019657
:101EC00018962C91189730E08217930794F38D01A0
:101ED000CDCFC801B501A6964FADA697E0DDD801DC
:101EE00018968C911897E82FF0E0A596FFAFEEAF0B
:101EF000A5971301F501A3965FAE4EAEA39793018C
:101F000040E050E0A8965FAE4EAEA89737C0E1140F
:101F1000F10461F0A896AEADBFADA8976D917C912C
:101F20001197808191816817790760F48081918190
:101F3000A896AEADBFADA89711969C938E93E11471
:101F4000F10449F0D9016D917C91119780819181C3
:101F50008617970728F480819181D9018D939C93EE
:101F60004F5F5F4F2E5F3F4F3296A8968EAD9FAD6D
:101F7000A8970296A8969FAF8EAFA897A596AEADEC
:101F8000BFADA5974A175B0714F20894E11CF11C3A
:101F9000BAE0EB16F10409F09CCF80E090E02CC091
:101FA000F101419151911F01BC01660F771FD601CC
:101FB000ED91FC911197E60FF71F208131812417D5
:101FC000350710F451834083A396EEADFFADA39780
:101FD00041915191A396FFAFEEAFA397D401ED913C
:101FE000FC911197E60FF71F2081318142175307AB
:101FF00010F4518340830196F801208530E0821768
:10200000930774F2C959DF4FE2E1E7C01F93CF9302
:10201000DF93EC01162F862F8150823050F4AE01F1
:102020004E5F5F4FCE01BE0121E0EEDE123019F0AF
:102030000BC0662349F4BE016C5F7F4FAE014A5F5F
:102040005F4FCE0120E0E0DEDF91CF911F91089538
:10205000CF93DF93EC018A819B81009709F078D1BF
:102060008E819F81009709F073D1888199810097B3
:1020700009F06ED18C819D81009709F069D1DF91C3
:10208000CF910895629FD001739FF001829FE00D70
:10209000F11D649FE00DF11D929FF00D839FF00DE7
:1020A000749FF00D659FF00D9927729FB00DE11D93
:1020B000F91F639FB00DE11DF91FBD01CF01112470
:1020C0000895991B79E004C0991F961708F0961B94
:1020D000881F7A95C9F780950895AA1BBB1B51E10B
:1020E00007C0AA1FBB1FA617B70710F0A61BB70B88
:1020F000881F991F5A95A9F780959095BC01CD012D
:10210000089597FB092E07260AD077FD04D0E5DF56
:1021100006D000201AF4709561957F4F0895F6F768
:10212000909581959F4F0895A1E21A2EAA1BBB1B83
:10213000FD010DC0AA1FBB1FEE1FFF1FA217B30793
:10214000E407F50720F0A21BB30BE40BF50B661FA9
:10215000771F881F991F1A9469F76095709580956D
:1021600090959B01AC01BD01CF01089597FB092E0D
:1021700005260ED057FD04D0D7DF0AD0001C38F456
:1021800050954095309521953F4F4F4F5F4F0895A3
:10219000F6F790958095709561957F4F8F4F9F4F83
:1021A00008952F923F924F925F926F927F928F92FB
:1021B0009F92AF92BF92CF92DF92EF92FF920F93D6
:1021C0001F93CF93DF93CDB7DEB7CA1BDB0B0FB6E0
:1021D000F894DEBF0FBECDBF09942A88398848889D
:1021E0005F846E847D848C849B84AA84B984C88433
:1021F000DF80EE80FD800C811B81AA81B981CE0F2A
:10220000D11D0FB6F894DEBF0FBECDBFED0108950E
:10221000EE0FFF1F0590F491E02D0994CF93DF930B
:102220008230910510F482E090E0E0914002F0915C
:10223000410240E050E020E030E026C06081718142
:1022400068177907E0F06817790781F48281938134
:102250002115310531F0D90113969C938E93129775
:102260002BC0909341028093400226C04115510536
:1022700019F06417750718F4AB01E901DF019F013C
:1022800072816381E72FF62F3097C1F64115510512
:1022900001F1481B590B4430510580F412968D9181
:1022A0009C911397209719F09B838A8304C0909385
:1022B000410280934002FD01329646C0FD01E40FC9
:1022C000F51F819391934250504011965C934E9329
:1022D0003BC020913E0230913F022115310541F46F
:1022E0002091C5013091C60130933F0220933E02F8
:1022F0002091C7013091C8012115310541F42DB756
:102300003EB74091C3015091C401241B350BE091AD
:102310003E02F0913F02E217F307A0F42E1B3F0BA1
:102320002817390778F0AC014E5F5F4F2417350747
:1023300048F04E0F5F1F50933F0240933E0281933F
:10234000919302C0E0E0F0E0CF01DF91CF910895DA
:10235000CF93DF93009709F491C0FC013297138269
:10236000128260914002709141026115710581F401
:1023700020813181280F391F80913E0290913F02C8
:102380008217930799F5F0933F02E0933E0276C0DF
:10239000DB0180E090E002C0CD01D901AE17BF079C
:1023A00048F412962D913C91139721153105A1F710
:1023B000CD0121C0B383A283EF01499159919E01C0
:1023C000240F351FA217B30779F42D913C91119773
:1023D000240F351F2E5F3F4F3183208312962D919E
:1023E0003C91139733832283009729F4F0934102A1
:1023F000E093400243C0DC011396FC93EE931297E6
:102400004D915D91A40FB51FEA17FB0769F4208178
:102410003181240F351F2E5F3F4FEC013983288314
:10242000228133813B832A83E0E0F0E002C0FB019C
:10243000BC01DB0112968D919C9113970097B9F71F
:102440009B012E5F3F4F8D919C911197820F931F9F
:1024500040913E0250913F024817590779F4309756
:1024600029F4109241021092400202C0138212829B
:102470002250304030933F0220933E02DF91CF91B3
:10248000089510E0CCEAD0E003C0FE01C3DE22963E
:0A249000CE3AD107D1F7F894FFCF40
:10249A006D56005072657373204200476F21000128
:1024AA0001200000010203040506FF3E3E613332AB
:1024BA0000536F6C76656421005072657373204215
:1024CA000000000000000000000000000000000002
:1024DA0000000000000000000000000000000000F2
:1024EA0000000000000000000000000000000000E2
:1024FA0000000000000000000000000000000000D2
:10250A0000000000000000000000000000000000C1
:10251A0000000000000000000000000000000000B1
:10252A000000000000010101881301040400D00723
:10253A00F4010F009C01B501CF01EA01070226024E
:10254A00470269028E02B502DE020A0302080E0F72
:0A255A0010111220004202000000E0
:00000001FF
