:1000000062C0000087C0000085C0000083C00000FF
:1000100081C000007FC000007DC000007BC00000E8
:1000200079C000000C943A0B75C0000073C000004A
:1000300071C00000C6C700006DC000006BC00000AA
:1000400069C0000067C0000065C0000063C0000018
:1000500061C000005FC000005DC000005BC0000028
:1000600059C0000057C0000044054A054D05500521
:100070005305560559055C055F056205650568056C
:1000800020506F6C6F6C750033F720526F626F7485
:10009000004D617A6500736F6C766572003E673360
:1000A000323E3E633332004C313620636465677202
:1000B00065673400000000000000001F1F1F1F1FA5
:1000C0001F1FD00BD10B11241FBECFEFD8E0DEBF16
:1000D000CDBF11E0A0E0B1E0E4EDF6E202C0059092
:1000E0000D92A23BB107D9F712E0A2EBB1E001C03B
:1000F0001D92AA32B107E1F710E0C4ECD0E004C0D1
:100100002297FE010E942712C23CD107C9F7B3D043
:100110000C945E1375CF80910F018F5F80930F0158
:100120000895AAE0B0E0E7E9F0E00C94FA1180ED60
:1001300097E00E940E0CA8D080E890E00E94F109A0
:1001400080E061E00E94370988E890E00E94F109B0
:100150008DE990E027D788EE93E00E94740B0E940F
:10016000650981E990E00E94F10980E061E00E9468
:10017000370986E990E00E94F10988EE93E019C002
:1001800081D38C010E946509B801882777FD80958D
:10019000982F0E94E20980E091E00E94FF0980E030
:1001A00061E00E94370983E091E00E94FF0984E644
:1001B00090E00E94740B80E10E94EC0A882301F316
:1001C00080E10E94380B88EE93E00E94740B0CEEE5
:1001D0001FEF0832110528F088E290E068ED7FEF0C
:1001E00004C088ED9FEF68E270E00E94EA0A81E0B7
:1001F0000E94DB0B84E190E00E94740B0F5F1F4FA5
:100200000C33110531F780E090E060E070E00E946F
:10021000EA0A8E010F5F1F4F16C0C80161E00E94FD
:10022000D40B7C010E946509B70180E090E00E9438
:10023000E20980E061E00E943709C8014FD084E6FE
:1002400090E00E94740B80E10E94EC0A882329F35D
:1002500080E10E94380B0E9465098BE091E00E94CA
:10026000FF0987EA90E09ED60FD38823E9F72A9604
:10027000E6E00C94161255DFDBD0FFCF8091100121
:100280008F5F809310010895CF93DF93C4EBD0E08C
:10029000CE0160E00E94260ACE01019661E00E9434
:1002A000260ACE01029662E00E94260ACE0103963B
:1002B00063E00E94260ACE01049664E00E94260AAA
:1002C000CE01059665E00E94260ACE01069666E0FC
:1002D0000E94260AFAD7DF91CF910895AAE0B0E0F4
:1002E000E4E7F1E00C94F711082F192F95E0B92EEF
:1002F0007E010894E11CF11C85E6C82ED12CD701A3
:10030000E1E1F1E08AE001900D928150E1F7F8011E
:10031000819191918F01B6010E948A116E0D7F1D0E
:10032000FB0180810E94010ABA9449F72A96E9E00C
:100330000C941312809195018F5F8093950108951D
:10034000E091B201F0E0EF5CFE4F1082BED781E396
:1003500091E00E94FF098091B201893038F080E07D
:1003600061E085D789E391E00C94FF090895882323
:1003700031F4662331F4442331F082E508958CE4AE
:10038000089583E5089582E408954091B2014330D1
:1003900008F44DC0242F30E0F901EF5CFE4FDF017F
:1003A00012978C91823409F042C0B901625D7E4F90
:1003B00080E090E0319750815C3441F0523519F083
:1003C000523449F406C0865A9F4F05C0825F9E4F43
:1003D00002C08C549F4FE617F70761F768E671E09B
:1003E0000E949E118A35910591F08B3591051CF480
:1003F000009749F019C0843B910569F051E08E30B7
:10040000950791F40CC0225D3E4F83E50BC0225D41
:100410003E4F82E507C0225D3E4F82E403C0225D6D
:100420003E4F8CE4F901808342504093B20108951D
:10043000AAE0B0E0EEE1F2E00C94F21180917C00D1
:10044000806280937C00C9D15C018E010F5F1F4FD9
:100450008CE390E0CCD082E390E062E370E00E9415
:10046000EA0A82E390E00E94740BC80161E00E94F6
:10047000D40BC980DA80E984FA8488E290E068E2EB
:1004800070E00E94EA0A88EC90E00E94740BC801B8
:1004900061E00E94D40B8B819C81893C910560F4C2
:1004A0008D819E81893C9105B8F48F819885893C26
:1004B000910590F460E011C022E08935920760F068
:1004C0008D819E81E2E089359E0730F08F8198858D
:1004D000F2E089359F07E8F461E081E025E6C21685
:1004E000D10408F480E041E095E6E916F10408F44F
:1004F00040E03DDFE82EF9D08091B201E82FF0E036
:10050000EF5CFE4FE0828F5F8093B2013EDF18DF29
:100510009FCF90ED692E97E0792E812C912C80E071
:1005200090E060E070E00E94EA0A8BE191E047D53C
:100530001EC00E94B80BA40193010E94B111683E35
:10054000E3E07E07E0E08E07E0E09E0758F4BDD6CA
:1005500081E291E054D780E061E089D689E291E0C0
:100560004ED701C0EDDE8EE190E00E94740B80E179
:100570000E94EC0A8823E9F280E10E94EC0A8823B9
:10058000D9F788EE93E00E94740B81E3E82E81E0B6
:10059000F82E00E010E01CC0C50129D082E390E0F5
:1005A00062E370E00E94EA0A82E390E00E94740B2A
:1005B00088E290E068E270E00E94EA0A88EC90E04D
:1005C0000E94740BF70181917F018FD00F5F1F4F45
:1005D0008091B20190E008171907F4F2C50107D025
:1005E0009ECF809196018F5F809396010895AAE037
:1005F000B0E0EDEFF2E00C94EE118C01AA24BB24E4
:1006000065018824992466247724681A790A01C030
:100610004701CE01019661E00E94D40B50E3E52E24
:1006200058EFF52EE80EF91EC701AA2797FDA095F1
:10063000BA2FA80EB91ECA1EDB1EC601B50120E1E5
:1006400037E240E050E00E94D31119012A019701DE
:1006500028193909C901880F991F820F931F62E079
:1006600070E00E949E119B01220D331DC70164E1C1
:1006700070E00E949E11260F371F021713070CF41B
:100680009801C901261537050CF4C30197FF04C072
:10069000800F911FB80104C0B801681B790BC80115
:1006A00099D78B819C818436910550F48D819E81F0
:1006B0008436910528F48F8198858436910558F009
:1006C00089819A81893C910530F489859A85893C94
:1006D000910508F49DCF2A96E2E10C940A128091CC
:1006E00097018F5F8093970108958C3429F08235AC
:1006F00041F08234B1F40DC080EB9FEF60E570E013
:1007000004C080E590E060EB7FEF64D788EC90E078
:10071000EBC780E590E060EB7FEF5CD780E991E08C
:10072000E3C70895EF92FF920F931F93982F8032A3
:1007300078F487E880937A0080917C0080648076EA
:10074000892B80937C0080917A00806480937A006A
:1007500080917A0086FDFCCFFB01EE24FF24870107
:1007600080917A00806480937A0080917A0086FD7F
:10077000FCCF80917C0085FF04C08091790090E0DF
:1007800004C08091780090917900A0E0B0E0E80E7C
:10079000F91E0A1F1B1F319719F7CB0196958795F4
:1007A0006034710538F48E0D9F1D70E00E948A112F
:1007B0009B010DC0A0E0B0E0E80EF91E0A1F1B1F50
:1007C0009B0140E050E0C801B7010E94B111C9018E
:1007D0001F910F91FF90EF90089587E064E170E022
:1007E000A1CFA0E0B0E0209198013091990140E0C4
:1007F00050E0BC01CD010E945F119B01AC018091D2
:100800007C0085FF0BC0B901CA0161587F4F8F4F33
:100810009F4F2FEF30E040E050E00AC0B901CA011D
:1008200061507E4F8F4F9F4F2FEF33E040E050E0FD
:100830000E94B111C901089575DFD3CF1F931091A4
:100840007C0080917C008F7D80937C0086E06AE054
:1008500070E0F2DFAC0115FD04C080917C008F7D5B
:1008600003C080917C00806280937C009A01220FFB
:10087000331F240F351F2F5F3F4F36952795C90132
:100880001F910895DBCF089580919A01882339F054
:1008900020E08091B4019091B501892B09F021E00D
:1008A000822F0895A0E0B0E0E8E5F4E00C94F611A2
:1008B000FC015B01C42E8091B3018823C9F481E05F
:1008C0008093B30110926F0083E28093800081E1F6
:1008D000809381001092820080E197E290938900DA
:1008E0008093880010928B0010928A00229A78944C
:1008F00010929A01F7FD03C0DD24D39403C0FF7763
:100900002AE0D22E80918100082F10E0087F10701D
:1009100088ECD89EC00111248E179F07C0F4EF0108
:1009200087E2E131F80710F0C0E1D7E2BE01769529
:10093000679580E090E06058794687469F4F9E011A
:1009400040E050E00E94B1117901016024C088E2CA
:10095000D89E802D1124C82FD0E0CE17DF0708F4D1
:10096000EF01BE01769567959E0140E050E08AE078
:10097000D81639F480E090E0605E734481449F4F64
:1009800006C080E090E060537D4E8C4E9F4F0E94E9
:10099000B111790102608AE0D81639F4CE010596CA
:1009A0006AE070E00E948A11EB0183E0C83ED8073C
:1009B00011F4B5010FC0BE0180E090E0950140E068
:1009C00050E00E945F1128EE33E040E050E00E94CA
:1009D000D311B90110926F0000938100F092890049
:1009E000E0928800E0918800F0918900AC2DA03160
:1009F00008F0AFE080E190E08A1B910902C0F69513
:100A0000E7958A95E2F7F0938B00E0938A00709364
:100A1000BB016093BA0186B38FEF86BB81E0809300
:100A20006F00CDB7DEB7EAE00C941212CF93DF93DC
:100A3000EB018F3F11F0442329F488EE93E0BE01CF
:100A400040E067C0813110F420E005C0282F20511C
:100A5000203608F02FE5822F6CE00E947E11382F9F
:100A6000682F70E084EF9FEF689FF001699FF00DA1
:100A7000789FF00D1124E20FF11DEC30F10538F4F0
:100A8000EC5CFF4F0C9425128CE991E023C080E0D0
:100A900090E020C085EB91E01DC08FEC91E01AC082
:100AA0008AEE91E017C087E092E014C086E292E0FF
:100AB00011C087E492E00EC089E692E00BC08EE898
:100AC00092E008C085EB92E005C08EED92E002C096
:100AD0008AE093E0373071F002C0880F991F6A9561
:100AE000E2F7323020F005966AE070E00BC08050EB
:100AF00090480BC036E0880F991F3A95E1F70296AF
:100B000065E070E00E948A11CB01403108F04FE0AF
:100B1000BE01C8DEDF91CF9108953091B801E09118
:100B2000B401F091B501332311F0249101C020816B
:100B3000822F81548A3108F4205E203259F480914A
:100B4000B4019091B50101969093B5018093B401E1
:100B5000019729F7822F0895CF93DF93DEDF282FA7
:100B6000C0E0D0E01CC0CE0153E0880F991F5A9519
:100B7000E1F7CC0FDD1FC80FD91F822F992787FD02
:100B80009095C80FD91FE0978091B4019091B5015D
:100B900001969093B5018093B401BFDF282F822F77
:100BA00080538A3000F3CE01DF91CF910895A0E009
:100BB000B0E0EDEDF5E00C94F41180909B01B09065
:100BC000B601BB2021F06091B701662399F4A09093
:100BD000B7010091A0011091A101E0909C01F0905B
:100BE0009D01C0919E01D0919F01C090A201D09023
:100BF000A30103C18FEF70E040E018DF1092B7014E
:100C0000C0C194E0892EBB2404EF11E084E0E82EFB
:100C1000F12CC0EDD7E0B4E09B2EAFE0CA2ED12C72
:100C20007CDF282F8091B4019091B50101969093BB
:100C3000B5018093B401263609F498C02736CCF468
:100C40002236A1F1233674F42E3361F12F3334F4BC
:100C50002132B9F22C3309F006C126C0213609F041
:100C600002C11CC1243609F451C025360CF066C0FF
:100C700035C02F3609F4BFC0203754F42C3609F4A0
:100C8000A5C02D3609F4A5C0273609F0ECC086C0F2
:100C9000243709F4CEC0263709F4E2C0223709F020
:100CA000E2C0ADC08394BCCF8A94BACFA092B70102
:100CB000B092B6011093A1010093A001F0929D01A2
:100CC000E0929C01D0939F01C0939E0190929B0162
:100CD000D092A301C092A2012BE0F7C0A092B7016D
:100CE000B092B6011093A1010093A001F0929D0172
:100CF000E0929C01D0939F01C0939E0190929B0132
:100D0000D092A301C092A20120E0DFC0A092B7015F
:100D1000B092B6011093A1010093A001F0929D0141
:100D2000E0929C01D0939F01C0939E0190929B0101
:100D3000D092A301C092A20122E0C7C0A092B70145
:100D4000B092B6011093A1010093A001F0929D0111
:100D5000E0929C01D0939F01C0939E0190929B01D1
:100D6000D092A301C092A20124E0AFC0A092B7012B
:100D7000B092B6011093A1010093A001F0929D01E1
:100D8000E0929C01D0939F01C0939E0190929B01A1
:100D9000D092A301C092A20125E097C0A092B70112
:100DA000B092B6011093A1010093A001F0929D01B1
:100DB000E0929C01D0939F01C0939E0190929B0171
:100DC000D092A301C092A20127E07FC0C5DE7C01C2
:100DD00041C0A3DE8C3611F4BB2403C0AA24BB247B
:100DE000B3948091B4019091B50101969093B501AF
:100DF0008093B40115CFB0DE882E982C11CFA0922D
:100E0000B701B092B6011093A1010093A001F09236
:100E10009D01E0929C01D0939F01C0939E0190920E
:100E20009B01D092A301C092A20120E0FF24F39481
:100E30004DC092DEBC0180EC9DE50E948A11CB0181
:100E4000EB01F3E0CC0FDD1FFA95E1F7880F991F56
:100E5000C80FD91FCE01B7010E948A118B01E0CEC5
:100E60007BDE6C01DDCEA092B701B092B60110938B
:100E7000A1010093A001F0929D01E0929C01D0930A
:100E80009F01C0939E0190929B01D092A301C092BA
:100E9000A2011092B5011092B40173C0A092B701E3
:100EA000B092B6011093A1010093A001F0929D01B0
:100EB000E0929C01D0939F01C0939E0190929B0170
:100EC000D092A301C092A20129E0FF248CE0889E69
:100ED000C0011124E22EE80E0AC08091B401909165
:100EE000B50101969093B5018093B401E39415DEAA
:100EF0008B3299F3833289F30BC08091B4019091C6
:100F0000B50101969093B5018093B401EA9405DE92
:100F10008D3299F3C091A001D091A1018153883005
:100F200050F400919E0110919F0116DEBC01C80192
:100F30000E948A11EB018E010BC08091B401909147
:100F4000B50101969093B5018093B401C00FD11FF4
:100F500016950795E2DD8E3281F38091B6018823E4
:100F600039F0CE01969587958093B701C81BD109BA
:100F7000FF2011F0EE24EA948E2DBE014091A201D3
:100F800055DDCDB7DEB7ECE00C94101210926F0077
:100F90009093B5018093B40181E08093B8011092E1
:100FA000B70105CEF3CF089510926F009093B5016D
:100FB0008093B4011092B8011092B701F8CDF4CF2C
:100FC00008951F920F920FB60F9211242F933F9303
:100FD0004F935F936F937F938F939F93AF93BF9341
:100FE000EF93FF938091BA019091BB010197909389
:100FF000BB018093BA01019609F510926F007894B5
:1010000080918100887F81608093810080E197E2F8
:10101000909389008093880010928B0010928A0030
:1010200081E080939A018091B4019091B501892B60
:1010300029F08091B901882309F4B9DDFF91EF917E
:10104000BF91AF919F918F917F916F915F914F91E0
:101050003F912F910F900FBE0F901F901895EF9218
:10106000FF920F931F936AB157985A98289AE0906D
:10107000C001F090C1010091C2011091C30120E0B4
:1010800030E041E050E0CA016F9364E06A95F1F707
:101090006F910197C9F75C9ACA016F9364E06A95F2
:1010A000F1F76F910197C9F789B15C98FA016F93D5
:1010B00064E06A95F1F76F913197C9F75C9AFA018C
:1010C0006F9364E06A95F1F76F913197C9F75C9877
:1010D00087FF0BC02C5F3F4FC901A0E0B0E08E1529
:1010E0009F05A007B10708F4CECF6AB91F910F91F1
:1010F000FF90EF90089565B190E0AC0141705070A1
:10110000440F551F9C012670307053E0220F331F8F
:101110005A95E1F7422B6D7C462B45B92BB188706F
:10112000907034E0880F991F3A95E1F72F77282BBC
:101130002BB95C9A81E090E0FC016F9364E06A95C2
:10114000F1F76F913197C9F75C986F9364E06A95F6
:10115000F1F76F910197C9F7089580E197E2A0E058
:10116000B0E08093C0019093C101A093C201B093FD
:10117000C301529A209A549A8EE190E0B5D283E04E
:1011800067D186E090E0B0D283E062D182E090E067
:10119000ABD283E05DD182E090E0A6D282E058D16C
:1011A00082E090E0A1D288E241D088E03FD081E0A7
:1011B0003DD086E03BD08CE039C08091C4018823CB
:1011C00021F481E08093C401C8CF0895BF92CF92EB
:1011D000DF92EF92FF920F931F93082F162FF42E9A
:1011E000ECDF3DDFB4B0C5B0DAB0EBB02898112326
:1011F00011F05A9A01C05A9884B1826384B9579AFF
:1012000081E0F81621F0802F82958F7074DF802F97
:101210008F7071DFDAB8EBB8B4B8C5B81F910F9111
:10122000FF90EF90DF90CF90BF90089560E042E094
:10123000CDCFA4E0B0E0EFE1F9E00C94FC11182F61
:10124000062F80E8898380EC8A8384E98B8384ED90
:101250008C83FE01E60FF11D8181810FE7DF109382
:10126000BF010093BE012496E4E00C941812E1CF74
:10127000089581E0DBDF8091BC019091BD01892B55
:1012800019F160E070E208C0E091BC01F091BD018D
:10129000E40FF51F70836F5F462F50E08091A4012B
:1012A00090E001972091A50130E0FC01E29FC00190
:1012B000E39F900DF29F900D11244817590724F3D6
:1012C0001092BF011092BE010895D3CF089561E03E
:1012D00042E07CCF6F927F928F929F92AF92BF92AB
:1012E000CF92DF92FF920F93DF93CF93CDB7DEB70C
:1012F0002A970FB6F894DEBF0FBECDBF5B016C011D
:101300000AE03E010894611C711CFA2CC601B5016B
:101310002AE030E040E050E00E94B111C901DA015A
:101320005C016D0101504301800E911C80E3F80EB9
:10133000C601B5012AE030E040E050E0C0D7F61A1F
:10134000F401F082A114B104C104D104F1F607C084
:10135000F601E00FF11D8081BADF0F5F04C06E015E
:101360000894C11CD11C0A3098F32A960FB6F89441
:10137000DEBF0FBECDBFCF91DF910F91FF90DF9009
:10138000CF90BF90AF909F908F907F906F90089577
:10139000EF92FF920F931F937B018C0197FF0AC07E
:1013A00010950095F094E094E11CF11C011D111DB5
:1013B0008DE28DDFC801B7018DDF1F910F91FF9086
:1013C000EF900895E5CF0895CF93DF93EC0102C02D
:1013D0007EDF2196FE0184918823D1F7DF91CF91A2
:1013E0000895F2CF0895CF93DF93EC0102C02196C8
:1013F0006EDF88818823D9F7DF91CF910895F3CFED
:10140000089565CF0895EF92FF920F931F93CF93A6
:10141000DF937C01062F10E0F3E0000F111FFA9517
:10142000E1F7C0E0D0E09E01200F822F8064FEDE55
:10143000F701EC0FFD1FE4918E2F49DF2196C83094
:10144000D10589F7CDB7DEB7E6E0F0C7DCCF089568
:1014500060E041E0BBCE282F883068F481E090E066
:1014600002C0880F991F2A95E2F7282FAAE2B0E060
:10147000EBE2F0E029C08E3080F430E028503040BC
:1014800081E090E002C0880F991F2A95E2F7282F8B
:10149000A4E2B0E0E5E2F0E017C0853130F020E0F2
:1014A000A0E0B0E0E0E0F0E00FC030E02E503040CF
:1014B00081E090E002C0880F991F2A95E2F7282F5B
:1014C000A7E2B0E0E8E2F0E06F3F19F48081822704
:1014D00009C0662319F08081822B04C09081822F7D
:1014E0008095892380838C91822B8C930895E0EBE7
:1014F000F0E083EF8083808184BDE1EBF0E082E067
:101500008083808185BDE4EBF0E010828081E3EB95
:10151000F0E08083808188BD88B587BD86E060E08B
:101520009ADF85E060E097DF8BE060E094DF83E0A6
:1015300060E091CF8091C501882321F481E0809300
:10154000C501D5CF0895CF93DF93EC01F3DFD7FD2D
:1015500002C020E004C0D095C195DF4F21E0CE014C
:10156000CF3FD10519F014F08FEF90E0222319F04E
:1015700018BC87BD02C088BD17BCDF91CF9108950C
:10158000CF93DF93EC01D6DFD7FD02C020E004C08B
:10159000D095C195DF4F21E0CE01CF3FD10519F0A5
:1015A00014F08FEF90E0222329F01092B400809382
:1015B000B30004C08093B4001092B300DF91CF91C8
:1015C00008950F931F938B01BEDFC801D9DF1F91D0
:1015D0000F910895F6CF0895282F8091C601882392
:1015E00091F481E08093C60184B18D7C84B985B18A
:1015F000826385B985E090E06F9364E06A95F1F7C6
:101600006F910197C9F783B18095822308951F9345
:10161000CF93DF93182F8091C601882391F481E046
:101620008093C60184B18D7C84B985B1826385B90C
:1016300085E090E06F9364E06A95F1F76F91019710
:10164000C9F7C12FD0E083B190E08C239D23892B73
:10165000D1F38AE090E048D083B190E08C239D23C1
:10166000892B89F383B18123DF91CF911F91089555
:10167000CECF08952F928F939F932FB68091D40150
:101680009091D50101968093D4019093D50190E07B
:101690008091D601891F8093D6019091DC019C5FD7
:1016A0009093DC018091DB0180519742C0F09093D0
:1016B000DC018093DB018091D7019091D8010196E4
:1016C0008093D7019093D80190E08091D901891F30
:1016D0008093D9018091DA01891F8093DA012FBEAE
:1016E0009F918F912F90189528EE33E009C0F90152
:1016F0006F9364E06A95F1F76F913197C9F701979D
:101700000097A9F70895A0E7B0E08C918E7F8C93A5
:10171000E0EBF0E0808183608083E1EBF0E08081AA
:10172000807F8083808182608083B89A8C91816081
:101730008C93789408958091DD01882321F481E0D1
:101740008093DD01E0CF0895F6DFE0E7F0E08081EF
:101750008E7F80832091D7013091D8014091D901AB
:101760005091DA01808181608083B901CA010895B6
:10177000EBCF0895E0DFE0E7F0E080818E7F8083AB
:101780001092D7011092D8011092D9011092DA016B
:101790001092DC011092DB018081816080830895CA
:1017A00008958EED91E054C49C01462F8EED91E09A
:1017B000B90120E0C5C3682F8EED91E060C50F939D
:1017C000DF93CF9300D000D00F92CDB7DEB79C014E
:1017D000962FDE011196E6EAF1E085E001900D9288
:1017E0008150E1F7BE016F5F7F4F992329F08EEDA5
:1017F00091E045E00FEF04C08EED91E045E003E19C
:101800007DD08EED91E059D0B5DF0F900F900F9005
:101810000F900F90CF91DF910F91089560E0CFCF9F
:10182000FC011182108213821282158214821782A7
:101830001682613118F080E1808701C06087208BBB
:10184000483060F481E090E002C0880F991F4A950B
:10185000E2F74AE250E02BE230E029C04E3080F45B
:10186000242F30E02850304081E090E002C0880F03
:10187000991F2A95E2F744E250E025E230E017C0D4
:10188000453130F080E040E050E020E030E00FC033
:10189000242F30E02E50304081E090E002C0880FCD
:1018A000991F2A95E2F747E250E028E230E081876D
:1018B00033872287558744870895DC011C96ED9174
:1018C000FC911D973097C9F0808119969C911997CA
:1018D000892B80831A96ED91FC911B979081199624
:1018E0008C9180958923808388EC90E06F9364E0ED
:1018F0006A95F1F76F910197C9F70895A0E0B0E0FC
:10190000E3E8FCE073C5EC015B01642F7901402F33
:1019100020E086DFCE018F5B9F4FFC011082DE014D
:10192000AE5BBF4F1C92FE01ED5BFF4F1082FF8646
:10193000EE8640E061E070E06F017D018C014EC0F9
:10194000F501E40FF11D8081883050F49B0102C045
:10195000220F331F8A95E2F7922F29E230E01FC051
:101960008E3060F490E00897FB0102C0EE0FFF1F7D
:101970008A95E2F79E2F23E230E011C0853120F0F6
:1019800090E020E030E00BC090E00E979B0102C099
:10199000220F331F8A95E2F7922F26E230E0E42FE0
:1019A000F0E0DE01AE0FBF1F51969C93EE0FFF1FBC
:1019B000EC0FFD1F32A321A32332310511F4F801EE
:1019C00009C02632310511F4F70104C0293231056E
:1019D00021F4F6018081982B90834F5F888548170A
:1019E00008F4AECFCDB7DEB7EAE01CC5A0E0B0E0AA
:1019F000EBEFFCE0F9C4EC015B01CF5BDF4F4991F9
:101A0000A9918880C354D04090E009C0E92FF0E04C
:101A1000EE0FFF1FEA0DFB1D118210829F5F88856C
:101A20009817A0F384B1CF5BDF4F3991832B84B932
:101A300087B12991822B87B98AB19881C354D0404C
:101A4000892B8AB985B1832B85B988B1822B88B956
:101A50008BB1892B8BB9EAE0F0E06F9364E06A9573
:101A6000F1F76F913197C9F784B13095832384B929
:101A700087B12095822387B98AB1909589238AB945
:101A800085B1382335B988B1282328B98BB198237B
:101A90009BB99090B000C090B1008091B00083607D
:101AA0008093B00082E08093B100D090B20060E0FB
:101AB00070E03AC05091B2005D19650F711DE3B03E
:101AC000E41609F04FC0F6B0FA1609F04BC089B120
:101AD000881509F047C025C0A42FB0E09D01220F52
:101AE000331F8501020F131FF80180819181892B1B
:101AF000A1F42C0F3D1FF90181A192A1FC012081CD
:101B000030E0AC0FBD1F51968C9190E02823392313
:101B1000232B19F4F801718360834F5F8885481780
:101B2000D8F2D50E4E2DAF2D8E859F85681779077B
:101B300008F29092B000C092B10020E00FC0E22FF6
:101B4000F0E0EE0FFF1FEA0DFB1D80819181892BD4
:101B500021F48E859F85918380832F5F8885281748
:101B600070F305C0E3B0F6B089B040E0D7CFCDB791
:101B7000DEB7ECE055C4A0E0B0E0E0ECFDE038C436
:101B8000EC018B01D0907C00E0907A00C7B0F8B0F7
:101B900080917A0086FDFCCF90E009C0E92FF0E04B
:101BA000EE0FFF1FE00FF11F118210829F5F8885EB
:101BB0009817A0F397B18AA18095982397B998B107
:101BC000892388B987E880937A0050E025C0FE0118
:101BD000E40FF11D8189806480937C0080917A00FC
:101BE000806480937A0080917A0086FDFCCFE42F98
:101BF000F0E0EE0FFF1FE00FF11F20917800309111
:101C0000790080819181820F931F918380834F5F40
:101C100088854817E0F25F5F89A1581710F040E00F
:101C200016C040E0F5CFE42FF0E0EE0FFF1FE00F0D
:101C3000F11F69A1862F90E09595879520813181CC
:101C4000820F931F70E066D3718360834F5F888536
:101C5000481748F3D0927C00E0927A00F8B8C7B8F1
:101C6000CDB7DEB7E8E0E0C3A0E2B0E0E9E3FEE034
:101C7000BEC38C017B01D42E842F81508230F8F4B6
:101C8000D8011C96ED91FC911D973097C1F0808191
:101C900019969C911997892B80831A96ED91FC9146
:101CA0001B97808119969C91892B808388EC90E00A
:101CB0006F9364E06A95F1F76F910197C9F7F801A6
:101CC0008089882381F5C02EB12EC801B7018EDE30
:101CD000D8011C96ED91FC911D973097C9F0808139
:101CE00019969C911997892B80831A96ED91FC91F6
:101CF0001B97908119968C9180958923808388EC1D
:101D000090E06F9364E06A95F1F76F910197C9F7DE
:101D1000B2E0DB1609F059C08C2D9B2DBE016F5F20
:101D20007F4F64DE2EC0C02EB12EC801B70123DF65
:101D3000D8011C96ED91FC911D973097C9F08081D8
:101D400019969C911997892B80831A96ED91FC9195
:101D50001B97908119968C9180958923808388ECBC
:101D600090E06F9364E06A95F1F76F910197C9F77E
:101D7000B2E0DB1651F58C2D9B2DBE016F5F7F4FBE
:101D8000FADE40E0BE016F5F7F4F1AC0E42FF0E043
:101D9000EE0FFF1F6701CE0EDF1EE60FF71FD80103
:101DA0001E962D913C911F9780819181281B390BA4
:101DB000F60180819181820F931F918380834F5F11
:101DC000D80118968C91481708F3A096E9E02BC328
:101DD000A0E0B0E0EDEEFEE008C3EC01162F072F07
:101DE000942E22E0421711F0442351F48C819D81FE
:101DF000892B09F4A1C08E819F81892B09F49CC095
:101E0000892D8150823050F488819981892B09F481
:101E100093C08A819B81892B09F48EC0CE01612FEA
:101E2000702F492D21DF812F902F9C015901CC2447
:101E3000DD2400E010E07AC081E0981669F4EA81C0
:101E4000FB81E00FF11F20813181E881F981E00FF2
:101E5000F11F408151813DC0AC81BD81992059F471
:101E6000EE81FF81E00FF11F20813181A00FB11FB2
:101E70004D915C912EC0A00FB11F8D919C91E88176
:101E8000F981E00FF11F20813181EE85FF858217F6
:101E9000930710F4AF0105C0A9014E0F5F1F481B47
:101EA000590BEE81FF81E00FF11F60817181EA81A2
:101EB000FB81E00FF11F80819181EE85FF8568171E
:101EC000790710F49F0105C09C012E0F3F1F261BB0
:101ED000370B7901E41AF50AF1F0F501608171819F
:101EE00080E090E09A0140E050E0621B730B840BAD
:101EF000950B28EE33E040E050E0E1D1970140E05F
:101F000050E051D2C901F3E0293E3F0714F088EEBA
:101F100093E097FF02C080E090E0F50181939193F8
:101F20005F010894C11CD11C0E5F1F4F888590E093
:101F3000C816D9060CF480CFCDB7DEB7EBE071C27E
:101F4000A4E0B0E0E5EAFFE049C28C01F62EE72EFE
:101F50002A833EDFD8011896BC91B9832F2D3E2DE0
:101F6000C9018C01552444246624772443011C8232
:101F70001B82AA24BB246501B8EE2B2EB3E03B2EB6
:101F800031C0F801E080F180FA81FF2321F0C10126
:101F90008E199F097C0199ECE916F10414F0442490
:101FA0004394A3E3EA16F10494F0B701882777FD80
:101FB0008095982FA601950182D1660E771E881E06
:101FC000991EEB81FC81EE0DFF1DFC83EB83539486
:101FD00088EE93E0A0E0B0E0A80EB91ECA1EDB1E9A
:101FE0000E5F1F4F9981591660F2442009F5492F61
:101FF00050E04150504084EF91E0489F9001499F4C
:10200000300D589F300D11248091220290912302AF
:10201000821793071CF420E030E016C088EE93E0AE
:10202000489F9001499F300D589F300D11240CC0DE
:10203000AB81BC819D0140E050E0C401B30191D16E
:102040002093220230932302C9012496E2E1E2C1E7
:10205000CF93DF93EC018A819B81009709F095D2A1
:102060008E819F81009709F090D288819981009795
:1020700009F08BD28C819D81009709F086D2DF9187
:10208000CF910895A3E6B0E0E7E4F0E1A7C17C01B9
:102090005B016A01A2962FAFA297DA018D919C9104
:1020A000892B09F5F701808590E0880F991FD3D11E
:1020B000D6018D939C93009709F4DDC020E030E0B9
:1020C0000CC0C901880F991FD601ED91FC91E80F52
:1020D000F91F118210822F5F3F4FF701808590E03A
:1020E0002817390774F3D5018D919C91892B89F0BC
:1020F00000E010E03E010894611C711C41E4242EB4
:10210000312C2C0E3D1E31E2432E512C4C0E5D1E07
:1021100027C0F701808590E0880F991F9CD1D501D9
:102120008D939C93009709F4A6C020E030E011C085
:10213000C901880F991FD501ED91FC91E80FF91F96
:10214000D7011E968D919C911F97918380832F5F5D
:102150003F4FF701808590E0281739074CF3C8CF2F
:10216000C701B301A2964FADA2977EDDD7011896A5
:102170008C91882E9924A101F301A4965FAE4EAEF6
:10218000A49760E070E034C00115110559F0A496E1
:10219000AEADBFADA4972D913C9180819181281760
:1021A000390758F480819181A496AEADBFADA49754
:1021B0008D939C930115110541F0DA012D913C910D
:1021C000808191818217930728F480819181DA01BF
:1021D0008D939C936F5F7F4F4E5F5F4F3296A496B7
:1021E0008EAD9FADA4970296A4969FAF8EAFA49795
:1021F000681579054CF20F5F1F4F0A30110509F081
:10220000AFCF40E050E020E030E08E010F5B1F4F89
:10221000BE016F5D7F4F28C0F801E20FF31F808081
:102220009180F601A081B181A20FB31F8D919C9185
:1022300011978815990510F48D929C92FB01E20F7D
:10224000F31F80809180F501A081B181A20FB31F9F
:102250008D919C9111978816990610F48D929C92FD
:102260004F5F5F4F2E5F3F4FD70118968C9190E0E4
:10227000481759078CF2CD59DF4FE2E1CBC01F93CD
:10228000CF93DF93EC01162F862F8150823038F4E4
:10229000AE014E5F5F4FCE01BE0121E0F3DE123092
:1022A00011F0112341F4AE014A5F5F4FCE01249635
:1022B000BE0120E0E7DEDF91CF911F910895629F7C
:1022C000D001739FF001829FE00DF11D649FE00D2E
:1022D000F11D929FF00D839FF00D749FF00D659F8F
:1022E000F00D9927729FB00DE11DF91F639FB00D8E
:1022F000E11DF91FBD01CF0111240895991B79E05B
:1023000004C0991F961708F0961B881F7A95C9F785
:1023100080950895AA1BBB1B51E107C0AA1FBB1FD4
:10232000A617B70710F0A61BB70B881F991F5A9561
:10233000A9F780959095BC01CD01089597FB092ED2
:1023400007260AD077FD04D0E5DF06D000201AF476
:10235000709561957F4F0895F6F7909581959F4F01
:102360000895A1E21A2EAA1BBB1BFD010DC0AA1FD6
:10237000BB1FEE1FFF1FA217B307E407F50720F0EE
:10238000A21BB30BE40BF50B661F771F881F991F69
:102390001A9469F760957095809590959B01AC01B2
:1023A000BD01CF01089597FB092E05260ED057FDDC
:1023B00004D0D7DF0AD0001C38F4509540953095F2
:1023C00021953F4F4F4F5F4F0895F6F790958095B9
:1023D000709561957F4F8F4F9F4F08952F923F9239
:1023E0004F925F926F927F928F929F92AF92BF9225
:1023F000CF92DF92EF92FF920F931F93CF93DF93D1
:10240000CDB7DEB7CA1BDB0B0FB6F894DEBF0FBE2D
:10241000CDBF09942A88398848885F846E847D847A
:102420008C849B84AA84B984C884DF80EE80FD807C
:102430000C811B81AA81B981CE0FD11D0FB6F894F2
:10244000DEBF0FBECDBFED010895EE0FFF1F05905B
:10245000F491E02D0994CF93DF938230910510F42D
:1024600082E090E0E0912802F091290240E050E003
:1024700020E030E026C06081718168177907E0F0C4
:102480006817790781F4828193812115310531F034
:10249000D90113969C938E9312972BC09093290287
:1024A0008093280226C04115510519F0641775075D
:1024B00018F4AB01E901DF019F0172816381E72F0D
:1024C000F62F3097C1F64115510501F1481B590B04
:1024D0004430510580F412968D919C91139720976A
:1024E00019F09B838A8304C0909329028093280269
:1024F000FD01329646C0FD01E40FF51F81939193D3
:102500004250504011965C934E933BC0209126025E
:10251000309127022115310541F42091AD01309110
:10252000AE0130932702209326022091AF01309113
:10253000B0012115310541F42DB73EB74091AB01F3
:102540005091AC01241B350BE0912602F09127023B
:10255000E217F307A0F42E1B3F0B2817390778F07A
:10256000AC014E5F5F4F2417350748F04E0F5F1FD9
:1025700050932702409326028193919302C0E0E09A
:10258000F0E0CF01DF91CF910895CF93DF930097D3
:1025900009F491C0FC0132971382128260912802E3
:1025A000709129026115710581F420813181280F14
:1025B000391F80912602909127028217930799F57F
:1025C000F0932702E093260276C0DB0180E090E0E2
:1025D00002C0CD01D901AE17BF0748F412962D9164
:1025E0003C91139721153105A1F7CD0121C0B3838B
:1025F000A283EF01499159919E01240F351FA21723
:10260000B30779F42D913C911197240F351F2E5F5C
:102610003F4F3183208312962D913C911397338342
:102620002283009729F4F0932902E093280243C003
:10263000DC011396FC93EE9312974D915D91A40FDC
:10264000B51FEA17FB0769F420813181240F351F7C
:102650002E5F3F4FEC0139832883228133813B83F6
:102660002A83E0E0F0E002C0FB01BC01DB0112962E
:102670008D919C9113970097B9F79B012E5F3F4F67
:102680008D919C911197820F931F4091260250913A
:1026900027024817590779F4309729F41092290234
:1026A0001092280202C013821282225030403093CE
:1026B000270220932602DF91CF91089510E0C4EC09
:1026C000D0E003C0FE01C3DE2296C63CD107D1F79D
:0426D000F894FFCFAC
:1026D4006D56005072657373204200476F210001EC
:1026E40001200000010203040506FF3E3E6133326F
:1026F40000536F6C766564210050726573732042D9
:1027040000000000000000000000000000000000C5
:1027140000000000000000000000000000000000B5
:1027240000000000000000000000000000000000A5
:102734000000000000000000000000000000000095
:102744000000000000000000000000000000000085
:102754000000000000000000000000000000000075
:102764000000000000010101881301040400D007E7
:10277400F4010F0002080E0F10111220002A0200AB
:02278400000053
:00000001FF
